{"abi":[{"inputs":[],"stateMutability":"nonpayable","type":"constructor","name":"constructor"},{"anonymous":false,"inputs":[{"indexed":true,"internalType":"address","name":"user","type":"address"},{"indexed":false,"internalType":"uint256","name":"amount","type":"uint256"}],"name":"BillPaid","type":"event"},{"anonymous":false,"inputs":[{"indexed":true,"internalType":"address","name":"user","type":"address"},{"indexed":false,"internalType":"uint256","name":"peak","type":"uint256"},{"indexed":false,"internalType":"uint256","name":"midPeak","type":"uint256"},{"indexed":false,"internalType":"uint256","name":"offPeak","type":"uint256"}],"name":"ConsumptionReported","type":"event"},{"anonymous":false,"inputs":[{"indexed":true,"internalType":"address","name":"provider","type":"address"}],"name":"ProviderAdded","type":"event"},{"anonymous":false,"inputs":[{"indexed":true,"internalType":"address","name":"provider","type":"address"}],"name":"ProviderRemoved","type":"event"},{"anonymous":false,"inputs":[{"indexed":true,"internalType":"address","name":"user","type":"address"},{"indexed":true,"internalType":"address","name":"provider","type":"address"}],"name":"ProviderSelected","type":"event"},{"inputs":[{"internalType":"address","name":"provider","type":"address"},{"internalType":"uint256","name":"_peakRate","type":"uint256"},{"internalType":"uint256","name":"_midPeakRate","type":"uint256"},{"internalType":"uint256","name":"_offPeakRate","type":"uint256"}],"name":"addProvider","outputs":[],"stateMutability":"nonpayable","type":"function"},{"inputs":[{"internalType":"address","name":"user","type":"address"}],"name":"calculateBill","outputs":[{"internalType":"uint256","name":"","type":"uint256"}],"stateMutability":"view","type":"function"},{"inputs":[],"name":"owner","outputs":[{"internalType":"address","name":"","type":"address"}],"stateMutability":"view","type":"function"},{"inputs":[],"name":"payBill","outputs":[],"stateMutability":"payable","type":"function"},{"inputs":[{"internalType":"address","name":"","type":"address"}],"name":"providers","outputs":[{"internalType":"uint256","name":"peakRate","type":"uint256"},{"internalType":"uint256","name":"midPeakRate","type":"uint256"},{"internalType":"uint256","name":"offPeakRate","type":"uint256"},{"internalType":"bool","name":"isActive","type":"bool"}],"stateMutability":"view","type":"function"},{"inputs":[{"internalType":"uint256","name":"_peakConsumption","type":"uint256"},{"internalType":"uint256","name":"_midPeakConsumption","type":"uint256"},{"internalType":"uint256","name":"_offPeakConsumption","type":"uint256"}],"name":"reportConsumption","outputs":[],"stateMutability":"nonpayable","type":"function"},{"inputs":[{"internalType":"address","name":"provider","type":"address"}],"name":"selectProvider","outputs":[],"stateMutability":"nonpayable","type":"function"},{"inputs":[{"internalType":"address","name":"","type":"address"}],"name":"userConsumption","outputs":[{"internalType":"uint256","name":"peakConsumption","type":"uint256"},{"internalType":"uint256","name":"midPeakConsumption","type":"uint256"},{"internalType":"uint256","name":"offPeakConsumption","type":"uint256"}],"stateMutability":"view","type":"function"},{"inputs":[{"internalType":"address","name":"","type":"address"}],"name":"userToProvider","outputs":[{"internalType":"address","name":"","type":"address"}],"stateMutability":"view","type":"function"}],"bytecode":"608060405234801561001057600080fd5b50600080546001600160a01b031916331790556107e5806100326000396000f3fe6080604052600436106100865760003560e01c80633de77a85116100595780633de77a851461019e578063754f5a50146101be5780637a781658146101de5780638da5cb5b146101e6578063f14cdb401461021e57600080fd5b80630787bc271461008b57806310a8fd12146100f85780631c704785146101265780632971aab81461017c575b600080fd5b34801561009757600080fd5b506100d16100a63660046106e2565b6001602081905260009182526040909120805491810154600282015460039092015490919060ff1684565b60408051948552602085019390935291830152151560608201526080015b60405180910390f35b34801561010457600080fd5b506101186101133660046106e2565b610254565b6040519081526020016100ef565b34801561013257600080fd5b506101616101413660046106e2565b600260208190526000918252604090912080546001820154919092015483565b604080519384526020840192909252908201526060016100ef565b34801561018857600080fd5b5061019c610197366004610704565b610345565b005b3480156101aa57600080fd5b5061019c6101b93660046106e2565b610444565b3480156101ca57600080fd5b5061019c6101d936600461073d565b610506565b61019c610589565b3480156101f257600080fd5b50600054610206906001600160a01b031681565b6040516001600160a01b0390911681526020016100ef565b34801561022a57600080fd5b506102066102393660046106e2565b6003602052600090815260409020546001600160a01b031681565b6001600160a01b0380821660008181526003602081815260408084205490951680845260018083528685208751608081018952815481528183015481860152600280830154828b0152919095015460ff16151560608087019190915296865280845287862088519788018952805480895292810154948801949094529290920154958501959095528151929493919285916102ef919061077f565b9050600083602001518360200151610307919061077f565b905060008460400151846040015161031f919061077f565b905060008161032e848661079c565b610338919061079c565b9998505050505050505050565b6000546001600160a01b031633146103b35760405162461bcd60e51b815260206004820152602660248201527f4f6e6c7920746865206f776e65722063616e2063616c6c20746869732066756e60448201526531ba34b7b71760d11b60648201526084015b60405180910390fd5b6040805160808101825284815260208082018581528284018581526001606085018181526001600160a01b038b166000818152958390528786209651875593519186019190915590516002850155516003909301805460ff191693151593909317909255915190917fae9c2c6481964847714ce58f65a7f6dcc41d0d8394449bacdf161b5920c4744a91a250505050565b6001600160a01b03811660009081526001602052604090206003015460ff166104af5760405162461bcd60e51b815260206004820152601760248201527f50726f7669646572206973206e6f74206163746976652e00000000000000000060448201526064016103aa565b3360008181526003602052604080822080546001600160a01b0319166001600160a01b03861690811790915590519092917f77a3dc71d71e0b197d585711772089b5bea21b78e806a1afe1958a87fee0a2ee91a350565b60408051606080820183528582526020808301868152838501868152336000818152600280865290889020965187559251600187015590519490910193909355835187815290810186905292830184905290917f5d9e57785fc54fe4362a6055f155ed52e9446cefbf4b8f8214664003f2938aa0910160405180910390a2505050565b336000908152600360205260409020546001600160a01b03166105e65760405162461bcd60e51b8152602060048201526015602482015274273790383937bb34b232b91039b2b632b1ba32b21760591b60448201526064016103aa565b60006105f133610254565b90508034146106425760405162461bcd60e51b815260206004820152601a60248201527f506179207468652065786163742062696c6c20616d6f756e742e00000000000060448201526064016103aa565b336000908152600360205260408082205490516001600160a01b03919091169182913480156108fc0292909190818181858888f1935050505015801561068c573d6000803e3d6000fd5b5060405182815233907fa53d5ff8d58d253ff04700d46f9bf75189228ee0d4afdfba61f91b1352e8d47a9060200160405180910390a25050565b80356001600160a01b03811681146106dd57600080fd5b919050565b6000602082840312156106f457600080fd5b6106fd826106c6565b9392505050565b6000806000806080858703121561071a57600080fd5b610723856106c6565b966020860135965060408601359560600135945092505050565b60008060006060848603121561075257600080fd5b505081359360208301359350604090920135919050565b634e487b7160e01b600052601160045260246000fd5b808202811582820484141761079657610796610769565b92915050565b808201808211156107965761079661076956fea264697066735822122035b97cca975af0291bdc0554543bf87b92b928d7aebd6cd30d6cfa9532d3ab6b64736f6c63430008180033","bytecodeSha1":"03b8df53909f5c75ea38fa152ee0a0241117c547","compiler":{"evm_version":"istanbul","optimizer":{"enabled":true,"runs":200},"version":"0.8.24+commit.e11b9ed9"},"contractName":"EnergyBilling","language":"Solidity","natspec":{"kind":"dev","methods":{},"version":1},"opcodes":"PUSH1 0x80 PUSH1 0x40 MSTORE PUSH1 0x4 CALLDATASIZE LT PUSH2 0x86 JUMPI PUSH1 0x0 CALLDATALOAD PUSH1 0xE0 SHR DUP1 PUSH4 0x3DE77A85 GT PUSH2 0x59 JUMPI DUP1 PUSH4 0x3DE77A85 EQ PUSH2 0x19E JUMPI DUP1 PUSH4 0x754F5A50 EQ PUSH2 0x1BE JUMPI DUP1 PUSH4 0x7A781658 EQ PUSH2 0x1DE JUMPI DUP1 PUSH4 0x8DA5CB5B EQ PUSH2 0x1E6 JUMPI DUP1 PUSH4 0xF14CDB40 EQ PUSH2 0x21E JUMPI PUSH1 0x0 DUP1 REVERT JUMPDEST DUP1 PUSH4 0x787BC27 EQ PUSH2 0x8B JUMPI DUP1 PUSH4 0x10A8FD12 EQ PUSH2 0xF8 JUMPI DUP1 PUSH4 0x1C704785 EQ PUSH2 0x126 JUMPI DUP1 PUSH4 0x2971AAB8 EQ PUSH2 0x17C JUMPI JUMPDEST PUSH1 0x0 DUP1 REVERT JUMPDEST CALLVALUE DUP1 ISZERO PUSH2 0x97 JUMPI PUSH1 0x0 DUP1 REVERT JUMPDEST POP PUSH2 0xD1 PUSH2 0xA6 CALLDATASIZE PUSH1 0x4 PUSH2 0x6E2 JUMP JUMPDEST PUSH1 0x1 PUSH1 0x20 DUP2 SWAP1 MSTORE PUSH1 0x0 SWAP2 DUP3 MSTORE PUSH1 0x40 SWAP1 SWAP2 KECCAK256 DUP1 SLOAD SWAP2 DUP2 ADD SLOAD PUSH1 0x2 DUP3 ADD SLOAD PUSH1 0x3 SWAP1 SWAP3 ADD SLOAD SWAP1 SWAP2 SWAP1 PUSH1 0xFF AND DUP5 JUMP JUMPDEST PUSH1 0x40 DUP1 MLOAD SWAP5 DUP6 MSTORE PUSH1 0x20 DUP6 ADD SWAP4 SWAP1 SWAP4 MSTORE SWAP2 DUP4 ADD MSTORE ISZERO ISZERO PUSH1 0x60 DUP3 ADD MSTORE PUSH1 0x80 ADD JUMPDEST PUSH1 0x40 MLOAD DUP1 SWAP2 SUB SWAP1 RETURN JUMPDEST CALLVALUE DUP1 ISZERO PUSH2 0x104 JUMPI PUSH1 0x0 DUP1 REVERT JUMPDEST POP PUSH2 0x118 PUSH2 0x113 CALLDATASIZE PUSH1 0x4 PUSH2 0x6E2 JUMP JUMPDEST PUSH2 0x254 JUMP JUMPDEST PUSH1 0x40 MLOAD SWAP1 DUP2 MSTORE PUSH1 0x20 ADD PUSH2 0xEF JUMP JUMPDEST CALLVALUE DUP1 ISZERO PUSH2 0x132 JUMPI PUSH1 0x0 DUP1 REVERT JUMPDEST POP PUSH2 0x161 PUSH2 0x141 CALLDATASIZE PUSH1 0x4 PUSH2 0x6E2 JUMP JUMPDEST PUSH1 0x2 PUSH1 0x20 DUP2 SWAP1 MSTORE PUSH1 0x0 SWAP2 DUP3 MSTORE PUSH1 0x40 SWAP1 SWAP2 KECCAK256 DUP1 SLOAD PUSH1 0x1 DUP3 ADD SLOAD SWAP2 SWAP1 SWAP3 ADD SLOAD DUP4 JUMP JUMPDEST PUSH1 0x40 DUP1 MLOAD SWAP4 DUP5 MSTORE PUSH1 0x20 DUP5 ADD SWAP3 SWAP1 SWAP3 MSTORE SWAP1 DUP3 ADD MSTORE PUSH1 0x60 ADD PUSH2 0xEF JUMP JUMPDEST CALLVALUE DUP1 ISZERO PUSH2 0x188 JUMPI PUSH1 0x0 DUP1 REVERT JUMPDEST POP PUSH2 0x19C PUSH2 0x197 CALLDATASIZE PUSH1 0x4 PUSH2 0x704 JUMP JUMPDEST PUSH2 0x345 JUMP JUMPDEST STOP JUMPDEST CALLVALUE DUP1 ISZERO PUSH2 0x1AA JUMPI PUSH1 0x0 DUP1 REVERT JUMPDEST POP PUSH2 0x19C PUSH2 0x1B9 CALLDATASIZE PUSH1 0x4 PUSH2 0x6E2 JUMP JUMPDEST PUSH2 0x444 JUMP JUMPDEST CALLVALUE DUP1 ISZERO PUSH2 0x1CA JUMPI PUSH1 0x0 DUP1 REVERT JUMPDEST POP PUSH2 0x19C PUSH2 0x1D9 CALLDATASIZE PUSH1 0x4 PUSH2 0x73D JUMP JUMPDEST PUSH2 0x506 JUMP JUMPDEST PUSH2 0x19C PUSH2 0x589 JUMP JUMPDEST CALLVALUE DUP1 ISZERO PUSH2 0x1F2 JUMPI PUSH1 0x0 DUP1 REVERT JUMPDEST POP PUSH1 0x0 SLOAD PUSH2 0x206 SWAP1 PUSH1 0x1 PUSH1 0x1 PUSH1 0xA0 SHL SUB AND DUP2 JUMP JUMPDEST PUSH1 0x40 MLOAD PUSH1 0x1 PUSH1 0x1 PUSH1 0xA0 SHL SUB SWAP1 SWAP2 AND DUP2 MSTORE PUSH1 0x20 ADD PUSH2 0xEF JUMP JUMPDEST CALLVALUE DUP1 ISZERO PUSH2 0x22A JUMPI PUSH1 0x0 DUP1 REVERT JUMPDEST POP PUSH2 0x206 PUSH2 0x239 CALLDATASIZE PUSH1 0x4 PUSH2 0x6E2 JUMP JUMPDEST PUSH1 0x3 PUSH1 0x20 MSTORE PUSH1 0x0 SWAP1 DUP2 MSTORE PUSH1 0x40 SWAP1 KECCAK256 SLOAD PUSH1 0x1 PUSH1 0x1 PUSH1 0xA0 SHL SUB AND DUP2 JUMP JUMPDEST PUSH1 0x1 PUSH1 0x1 PUSH1 0xA0 SHL SUB DUP1 DUP3 AND PUSH1 0x0 DUP2 DUP2 MSTORE PUSH1 0x3 PUSH1 0x20 DUP2 DUP2 MSTORE PUSH1 0x40 DUP1 DUP5 KECCAK256 SLOAD SWAP1 SWAP6 AND DUP1 DUP5 MSTORE PUSH1 0x1 DUP1 DUP4 MSTORE DUP7 DUP6 KECCAK256 DUP8 MLOAD PUSH1 0x80 DUP2 ADD DUP10 MSTORE DUP2 SLOAD DUP2 MSTORE DUP2 DUP4 ADD SLOAD DUP2 DUP7 ADD MSTORE PUSH1 0x2 DUP1 DUP4 ADD SLOAD DUP3 DUP12 ADD MSTORE SWAP2 SWAP1 SWAP6 ADD SLOAD PUSH1 0xFF AND ISZERO ISZERO PUSH1 0x60 DUP1 DUP8 ADD SWAP2 SWAP1 SWAP2 MSTORE SWAP7 DUP7 MSTORE DUP1 DUP5 MSTORE DUP8 DUP7 KECCAK256 DUP9 MLOAD SWAP8 DUP9 ADD DUP10 MSTORE DUP1 SLOAD DUP1 DUP10 MSTORE SWAP3 DUP2 ADD SLOAD SWAP5 DUP9 ADD SWAP5 SWAP1 SWAP5 MSTORE SWAP3 SWAP1 SWAP3 ADD SLOAD SWAP6 DUP6 ADD SWAP6 SWAP1 SWAP6 MSTORE DUP2 MLOAD SWAP3 SWAP5 SWAP4 SWAP2 SWAP3 DUP6 SWAP2 PUSH2 0x2EF SWAP2 SWAP1 PUSH2 0x77F JUMP JUMPDEST SWAP1 POP PUSH1 0x0 DUP4 PUSH1 0x20 ADD MLOAD DUP4 PUSH1 0x20 ADD MLOAD PUSH2 0x307 SWAP2 SWAP1 PUSH2 0x77F JUMP JUMPDEST SWAP1 POP PUSH1 0x0 DUP5 PUSH1 0x40 ADD MLOAD DUP5 PUSH1 0x40 ADD MLOAD PUSH2 0x31F SWAP2 SWAP1 PUSH2 0x77F JUMP JUMPDEST SWAP1 POP PUSH1 0x0 DUP2 PUSH2 0x32E DUP5 DUP7 PUSH2 0x79C JUMP JUMPDEST PUSH2 0x338 SWAP2 SWAP1 PUSH2 0x79C JUMP JUMPDEST SWAP10 SWAP9 POP POP POP POP POP POP POP POP POP JUMP JUMPDEST PUSH1 0x0 SLOAD PUSH1 0x1 PUSH1 0x1 PUSH1 0xA0 SHL SUB AND CALLER EQ PUSH2 0x3B3 JUMPI PUSH1 0x40 MLOAD PUSH3 0x461BCD PUSH1 0xE5 SHL DUP2 MSTORE PUSH1 0x20 PUSH1 0x4 DUP3 ADD MSTORE PUSH1 0x26 PUSH1 0x24 DUP3 ADD MSTORE PUSH32 0x4F6E6C7920746865206F776E65722063616E2063616C6C20746869732066756E PUSH1 0x44 DUP3 ADD MSTORE PUSH6 0x31BA34B7B717 PUSH1 0xD1 SHL PUSH1 0x64 DUP3 ADD MSTORE PUSH1 0x84 ADD JUMPDEST PUSH1 0x40 MLOAD DUP1 SWAP2 SUB SWAP1 REVERT JUMPDEST PUSH1 0x40 DUP1 MLOAD PUSH1 0x80 DUP2 ADD DUP3 MSTORE DUP5 DUP2 MSTORE PUSH1 0x20 DUP1 DUP3 ADD DUP6 DUP2 MSTORE DUP3 DUP5 ADD DUP6 DUP2 MSTORE PUSH1 0x1 PUSH1 0x60 DUP6 ADD DUP2 DUP2 MSTORE PUSH1 0x1 PUSH1 0x1 PUSH1 0xA0 SHL SUB DUP12 AND PUSH1 0x0 DUP2 DUP2 MSTORE SWAP6 DUP4 SWAP1 MSTORE DUP8 DUP7 KECCAK256 SWAP7 MLOAD DUP8 SSTORE SWAP4 MLOAD SWAP2 DUP7 ADD SWAP2 SWAP1 SWAP2 SSTORE SWAP1 MLOAD PUSH1 0x2 DUP6 ADD SSTORE MLOAD PUSH1 0x3 SWAP1 SWAP4 ADD DUP1 SLOAD PUSH1 0xFF NOT AND SWAP4 ISZERO ISZERO SWAP4 SWAP1 SWAP4 OR SWAP1 SWAP3 SSTORE SWAP2 MLOAD SWAP1 SWAP2 PUSH32 0xAE9C2C6481964847714CE58F65A7F6DCC41D0D8394449BACDF161B5920C4744A SWAP2 LOG2 POP POP POP POP JUMP JUMPDEST PUSH1 0x1 PUSH1 0x1 PUSH1 0xA0 SHL SUB DUP2 AND PUSH1 0x0 SWAP1 DUP2 MSTORE PUSH1 0x1 PUSH1 0x20 MSTORE PUSH1 0x40 SWAP1 KECCAK256 PUSH1 0x3 ADD SLOAD PUSH1 0xFF AND PUSH2 0x4AF JUMPI PUSH1 0x40 MLOAD PUSH3 0x461BCD PUSH1 0xE5 SHL DUP2 MSTORE PUSH1 0x20 PUSH1 0x4 DUP3 ADD MSTORE PUSH1 0x17 PUSH1 0x24 DUP3 ADD MSTORE PUSH32 0x50726F7669646572206973206E6F74206163746976652E000000000000000000 PUSH1 0x44 DUP3 ADD MSTORE PUSH1 0x64 ADD PUSH2 0x3AA JUMP JUMPDEST CALLER PUSH1 0x0 DUP2 DUP2 MSTORE PUSH1 0x3 PUSH1 0x20 MSTORE PUSH1 0x40 DUP1 DUP3 KECCAK256 DUP1 SLOAD PUSH1 0x1 PUSH1 0x1 PUSH1 0xA0 SHL SUB NOT AND PUSH1 0x1 PUSH1 0x1 PUSH1 0xA0 SHL SUB DUP7 AND SWAP1 DUP2 OR SWAP1 SWAP2 SSTORE SWAP1 MLOAD SWAP1 SWAP3 SWAP2 PUSH32 0x77A3DC71D71E0B197D585711772089B5BEA21B78E806A1AFE1958A87FEE0A2EE SWAP2 LOG3 POP JUMP JUMPDEST PUSH1 0x40 DUP1 MLOAD PUSH1 0x60 DUP1 DUP3 ADD DUP4 MSTORE DUP6 DUP3 MSTORE PUSH1 0x20 DUP1 DUP4 ADD DUP7 DUP2 MSTORE DUP4 DUP6 ADD DUP7 DUP2 MSTORE CALLER PUSH1 0x0 DUP2 DUP2 MSTORE PUSH1 0x2 DUP1 DUP7 MSTORE SWAP1 DUP9 SWAP1 KECCAK256 SWAP7 MLOAD DUP8 SSTORE SWAP3 MLOAD PUSH1 0x1 DUP8 ADD SSTORE SWAP1 MLOAD SWAP5 SWAP1 SWAP2 ADD SWAP4 SWAP1 SWAP4 SSTORE DUP4 MLOAD DUP8 DUP2 MSTORE SWAP1 DUP2 ADD DUP7 SWAP1 MSTORE SWAP3 DUP4 ADD DUP5 SWAP1 MSTORE SWAP1 SWAP2 PUSH32 0x5D9E57785FC54FE4362A6055F155ED52E9446CEFBF4B8F8214664003F2938AA0 SWAP2 ADD PUSH1 0x40 MLOAD DUP1 SWAP2 SUB SWAP1 LOG2 POP POP POP JUMP JUMPDEST CALLER PUSH1 0x0 SWAP1 DUP2 MSTORE PUSH1 0x3 PUSH1 0x20 MSTORE PUSH1 0x40 SWAP1 KECCAK256 SLOAD PUSH1 0x1 PUSH1 0x1 PUSH1 0xA0 SHL SUB AND PUSH2 0x5E6 JUMPI PUSH1 0x40 MLOAD PUSH3 0x461BCD PUSH1 0xE5 SHL DUP2 MSTORE PUSH1 0x20 PUSH1 0x4 DUP3 ADD MSTORE PUSH1 0x15 PUSH1 0x24 DUP3 ADD MSTORE PUSH21 0x273790383937BB34B232B91039B2B632B1BA32B217 PUSH1 0x59 SHL PUSH1 0x44 DUP3 ADD MSTORE PUSH1 0x64 ADD PUSH2 0x3AA JUMP JUMPDEST PUSH1 0x0 PUSH2 0x5F1 CALLER PUSH2 0x254 JUMP JUMPDEST SWAP1 POP DUP1 CALLVALUE EQ PUSH2 0x642 JUMPI PUSH1 0x40 MLOAD PUSH3 0x461BCD PUSH1 0xE5 SHL DUP2 MSTORE PUSH1 0x20 PUSH1 0x4 DUP3 ADD MSTORE PUSH1 0x1A PUSH1 0x24 DUP3 ADD MSTORE PUSH32 0x506179207468652065786163742062696C6C20616D6F756E742E000000000000 PUSH1 0x44 DUP3 ADD MSTORE PUSH1 0x64 ADD PUSH2 0x3AA JUMP JUMPDEST CALLER PUSH1 0x0 SWAP1 DUP2 MSTORE PUSH1 0x3 PUSH1 0x20 MSTORE PUSH1 0x40 DUP1 DUP3 KECCAK256 SLOAD SWAP1 MLOAD PUSH1 0x1 PUSH1 0x1 PUSH1 0xA0 SHL SUB SWAP2 SWAP1 SWAP2 AND SWAP2 DUP3 SWAP2 CALLVALUE DUP1 ISZERO PUSH2 0x8FC MUL SWAP3 SWAP1 SWAP2 SWAP1 DUP2 DUP2 DUP2 DUP6 DUP9 DUP9 CALL SWAP4 POP POP POP POP ISZERO DUP1 ISZERO PUSH2 0x68C JUMPI RETURNDATASIZE PUSH1 0x0 DUP1 RETURNDATACOPY RETURNDATASIZE PUSH1 0x0 REVERT JUMPDEST POP PUSH1 0x40 MLOAD DUP3 DUP2 MSTORE CALLER SWAP1 PUSH32 0xA53D5FF8D58D253FF04700D46F9BF75189228EE0D4AFDFBA61F91B1352E8D47A SWAP1 PUSH1 0x20 ADD PUSH1 0x40 MLOAD DUP1 SWAP2 SUB SWAP1 LOG2 POP POP JUMP JUMPDEST DUP1 CALLDATALOAD PUSH1 0x1 PUSH1 0x1 PUSH1 0xA0 SHL SUB DUP2 AND DUP2 EQ PUSH2 0x6DD JUMPI PUSH1 0x0 DUP1 REVERT JUMPDEST SWAP2 SWAP1 POP JUMP JUMPDEST PUSH1 0x0 PUSH1 0x20 DUP3 DUP5 SUB SLT ISZERO PUSH2 0x6F4 JUMPI PUSH1 0x0 DUP1 REVERT JUMPDEST PUSH2 0x6FD DUP3 PUSH2 0x6C6 JUMP JUMPDEST SWAP4 SWAP3 POP POP POP JUMP JUMPDEST PUSH1 0x0 DUP1 PUSH1 0x0 DUP1 PUSH1 0x80 DUP6 DUP8 SUB SLT ISZERO PUSH2 0x71A JUMPI PUSH1 0x0 DUP1 REVERT JUMPDEST PUSH2 0x723 DUP6 PUSH2 0x6C6 JUMP JUMPDEST SWAP7 PUSH1 0x20 DUP7 ADD CALLDATALOAD SWAP7 POP PUSH1 0x40 DUP7 ADD CALLDATALOAD SWAP6 PUSH1 0x60 ADD CALLDATALOAD SWAP5 POP SWAP3 POP POP POP JUMP JUMPDEST PUSH1 0x0 DUP1 PUSH1 0x0 PUSH1 0x60 DUP5 DUP7 SUB SLT ISZERO PUSH2 0x752 JUMPI PUSH1 0x0 DUP1 REVERT JUMPDEST POP POP DUP2 CALLDATALOAD SWAP4 PUSH1 0x20 DUP4 ADD CALLDATALOAD SWAP4 POP PUSH1 0x40 SWAP1 SWAP3 ADD CALLDATALOAD SWAP2 SWAP1 POP JUMP JUMPDEST PUSH4 0x4E487B71 PUSH1 0xE0 SHL PUSH1 0x0 MSTORE PUSH1 0x11 PUSH1 0x4 MSTORE PUSH1 0x24 PUSH1 0x0 REVERT JUMPDEST DUP1 DUP3 MUL DUP2 ISZERO DUP3 DUP3 DIV DUP5 EQ OR PUSH2 0x796 JUMPI PUSH2 0x796 PUSH2 0x769 JUMP JUMPDEST SWAP3 SWAP2 POP POP JUMP JUMPDEST DUP1 DUP3 ADD DUP1 DUP3 GT ISZERO PUSH2 0x796 JUMPI PUSH2 0x796 PUSH2 0x769 JUMP INVALID LOG2 PUSH5 0x6970667358 0x22 SLT KECCAK256 CALLDATALOAD 0xB9 PUSH29 0xCA975AF0291BDC0554543BF87B92B928D7AEBD6CD30D6CFA9532D3AB6B PUSH5 0x736F6C6343 STOP ADDMOD XOR STOP CALLER ","sha1":"6fd0f4394ba3dc4f9705add66957bcd351e6d863","source":"// SPDX-License-Identifier: MIT\npragma solidity ^0.8.0;\n\ncontract EnergyBilling {\n    address public owner;\n    struct Provider {\n        uint256 peakRate;\n        uint256 midPeakRate;\n        uint256 offPeakRate;\n        bool isActive;\n    }\n    struct UserConsumption {\n        uint256 peakConsumption;\n        uint256 midPeakConsumption;\n        uint256 offPeakConsumption;\n    }\n    mapping(address => Provider) public providers;\n    mapping(address => UserConsumption) public userConsumption;\n    mapping(address => address) public userToProvider;\n\n    event ProviderAdded(address indexed provider);\n    event ProviderRemoved(address indexed provider);\n    event ProviderSelected(address indexed user, address indexed provider);\n    event ConsumptionReported(address indexed user, uint256 peak, uint256 midPeak, uint256 offPeak);\n    event BillPaid(address indexed user, uint256 amount);\n\n    modifier onlyOwner() {\n        require(msg.sender == owner, \"Only the owner can call this function.\");\n        _;\n    }\n\n    constructor() {\n        owner = msg.sender;\n    }\n\n    function addProvider(address provider, uint256 _peakRate, uint256 _midPeakRate, uint256 _offPeakRate) external onlyOwner {\n        providers[provider] = Provider({\n            peakRate: _peakRate,\n            midPeakRate: _midPeakRate,\n            offPeakRate: _offPeakRate,\n            isActive: true\n        });\n        emit ProviderAdded(provider);\n    }\n\n    function selectProvider(address provider) external {\n        require(providers[provider].isActive, \"Provider is not active.\");\n        userToProvider[msg.sender] = provider;\n        emit ProviderSelected(msg.sender, provider);\n    }\n\n    function reportConsumption(uint256 _peakConsumption, uint256 _midPeakConsumption, uint256 _offPeakConsumption) external {\n        userConsumption[msg.sender] = UserConsumption({\n            peakConsumption: _peakConsumption,\n            midPeakConsumption: _midPeakConsumption,\n            offPeakConsumption: _offPeakConsumption\n        });\n        emit ConsumptionReported(msg.sender, _peakConsumption, _midPeakConsumption, _offPeakConsumption);\n    }\n\n    function calculateBill(address user) public view returns (uint256) {\n        address providerAddr = userToProvider[user];\n        Provider memory providerRates = providers[providerAddr];\n        UserConsumption memory consumption = userConsumption[user];\n\n        uint256 peakCharge = consumption.peakConsumption * providerRates.peakRate;\n        uint256 midPeakCharge = consumption.midPeakConsumption * providerRates.midPeakRate;\n        uint256 offPeakCharge = consumption.offPeakConsumption * providerRates.offPeakRate;\n\n        uint256 totalCharge = peakCharge + midPeakCharge + offPeakCharge;\n\n        return totalCharge;\n    }\n\n    function payBill() external payable {\n        require(userToProvider[msg.sender] != address(0), \"No provider selected.\");\n        uint256 billAmount = calculateBill(msg.sender);\n        require(msg.value == billAmount, \"Pay the exact bill amount.\");\n\n        address providerAddr = userToProvider[msg.sender];\n        payable(providerAddr).transfer(msg.value);\n\n        emit BillPaid(msg.sender, billAmount);\n    }\n}\n","sourcePath":"contracts/EnergyBilling.sol","type":"contract","deployment":{"address":"0x2B1cC531C613a07f6d629ebAF005AB58564673Dd","chainid":"11155111","blockHeight":5480894}}